:1000000015C037C036C035C034C033C032C032C06E
:1000100030C02FC02EC02DC02CC02BC02AC029C07C
:1000200028C027C026C025C024C0170111241FBE28
:10003000CFEDCDBF10E0A0E6B0E0E6E5F2E002C013
:1000400005900D92A838B107D9F720E0A8E8B0E0F4
:1000500001C01D92A339B207E1F710E0C6E1D0E07C
:1000600003C02197FE01EFD0C531D107D1F7B3D03E
:10007000F0C0C6CF1F920F920FB60F9211242F938C
:100080003F934F935F936F938F939F93AF93BF93E0
:10009000EF93FF93E091880081E08E0F80938800BA
:1000A0009CB1F0E0E757FF4F9083823008F483C0A3
:1000B000E9E8F0E0A181E081EF70E83019F138F073
:1000C000E93009F44BC0EA3009F453C072C0E4309F
:1000D00008F06FC0A03168F08FEB8A0F8A3110F4FE
:1000E000A75307C08FE98A0F8A3110F4A75501C0C2
:1000F000A0E0F0E0E557FF4FB0E0AC59BF4F8C9166
:10010000808357C0AF3F41F4EBE8F0E081E08483A7
:100110008583868387834DC0A11107C0EBE8F0E09B
:10012000148215821682178244C0EFE8F0E080E066
:1001300090E041E050E061E09A01082E02C0220FF9
:10014000331F0A94E2F72A2311F4108201C060835E
:10015000019631968430910579F72BC081E0A11189
:1001600001C080E0EBE8F0E08483858386838783A9
:1001700020C0AF3F41F4EBE8F0E081E08483858369
:100180008683878316C080E090E041E050E06BEF0B
:100190009A01082E02C0220F331F0A94E2F72A2385
:1001A00021F0FC01E557FF4F6083019684309105F3
:1001B00079F710928800FF91EF91BF91AF919F91D5
:1001C0008F916F915F914F913F912F910F900FBE43
:1001D0000F901F90189580E98AB986E883B986E761
:1001E00089B978948FEF87BB81BB8FEA80938B00AE
:1001F0006BE870E02FE830E040E650E0FB01E901F9
:10020000DA01819188BB899190E00D9002C0880F3E
:10021000991F0A94E2F7809582BB87EA91E60197DD
:10022000F1F700C00000E217F30759F7E7CFEBE85A
:10023000F0E0108211821282138281E08483858330
:10024000868387830895EE0FFF1F0590F491E02DBC
:060250000994F894FFCFB1
:1002560002030405FB32D7773E7DFD33FF3FAFEF48
:10026600C9EBCD8DE9AE22E2CEC8A1A4E48F2F84DE
:080276006DCCEAEE4A2C6EC7C4
:00000001FF
