:1000000014C024C023C022C021C020C01FC01EC0F5
:100010001DC01CC01BC01AC019C018C017C016C014
:1000200015C014C013C012C011C011241FBECFEDE3
:10003000CDBF10E0A0E6B0E0ECE9F1E002C0059031
:100040000D92A838B107D9F702D0A6C0D9CFCF9367
:10005000DF93CDB7DD27C450CDBF8FEF87BB81BB0A
:100060008FEA89838FEE8A8389EC8B838BEE8C8376
:1000700040E0712C612C0F2EF0E6AF2EF0E0BF2E89
:10008000F02D7E0185E0E80EF11C01E010E00F2E5E
:10009000F8EECF2EF3E0DF2EF02D0F2EFBE79F2E94
:1000A000F02D812CFE013196D501919198BB9801DC
:1000B0000D9002C0220F331F0A94E2F7209522BB55
:1000C00087EA91E60197F1F700C00000EE15FF0501
:1000D00061F74F5F842F90E0B60137D0892B11F77D
:1000E00021E0260D862D692D24D0E92F81E0870D92
:1000F000372D33709B3078F05FEB590F5A3118F47D
:10010000E9ECE90F08C05FE9590F5A3118F4E9EA40
:10011000E90F01C0E82DA1E0B0E0AC0FBD1FA30FB7
:10012000B11DF0E0EC59FF4F90819C93782E622E28
:10013000B9CF991B79E004C0991F961708F0961B58
:10014000881F7A95C9F78095089597FB072E16F4B6
:10015000009406D077FD08D00BD007FC05D03EF404
:10016000909581959F4F0895709561957F4F089563
:10017000AA1BBB1B51E107C0AA1FBB1FA617B707CD
:1001800010F0A61BB70B881F991F5A95A9F78095E9
:0C0190009095BC01CD010895F894FFCFBC
:10019C0002030405FB32D7773E7DFD33FF3FAFEF03
:1001AC00C9EBCD8DE9AE22E2CEC8A1A4E48F2F8499
:0801BC006DCCEAEE4A2C6EC77F
:00000001FF
