:1000000015C037C036C035C034C033C032C032C06E
:1000100030C02FC02EC02DC02CC02BC02AC029C07C
:1000200028C027C026C025C024C0F60011241FBE4A
:10003000CFEDCDBF10E0A0E6B0E0E4E1F2E002C019
:1000400005900D92A438B107D9F720E0A4E8B0E0FC
:1000500001C01D92AF38B207E1F710E0C6E1D0E071
:1000600003C02197FE01CED0C531D107D1F7B3D05F
:10007000CFC0C6CF1F920F920FB60F9211242F93AD
:100080003F934F935F936F938F939F93AF93BF93E0
:10009000EF93FF93E091840081E08E0F80938400C2
:1000A0009CB1F0E0EB57FF4F9083823008F483C09F
:1000B000E5E8F0E0A181E081EF70E83019F138F077
:1000C000E93009F44BC0EA3009F453C072C0E4309F
:1000D00008F06FC0A03168F08FEB8A0F8A3110F4FE
:1000E000A75307C08FE98A0F8A3110F4A75501C0C2
:1000F000A0E0F0E0E957FF4FB0E0A05ABF4F8C916D
:10010000808357C0AF3F41F4E7E8F0E081E08483AB
:100110008583868387834DC0A11107C0E7E8F0E09F
:10012000148215821682178244C0EBE8F0E080E06A
:1001300090E041E050E061E09A01082E02C0220FF9
:10014000331F0A94E2F72A2311F4108201C060835E
:10015000019631968430910579F72BC081E0A11189
:1001600001C080E0E7E8F0E08483858386838783AD
:1001700020C0AF3F41F4E7E8F0E081E0848385836D
:100180008683878316C080E090E041E050E06BEF0B
:100190009A01082E02C0220F331F0A94E2F72A2385
:1001A00021F0FC01E957FF4F6083019684309105EF
:1001B00079F710928400FF91EF91BF91AF919F91D9
:1001C0008F916F915F914F913F912F910F900FBE43
:1001D0000F901F90189580E98AB986E883B986E761
:1001E00089B978948FEF87BB81BBFFCFE7E8F0E058
:1001F000108211821282138281E084838583868338
:1002000087830895EE0FFF1F0590F491E02D099468
:04021000F894FFCF90
:10021400FB32D7773E7DFD33FF3FAFEFC9EBCD8D8A
:10022400E9AE22E2CEC8A1A4E48F2F846DCCEAEE1D
:040234004A2C6EC71B
:00000001FF
