S0100000736576656E5365672E73726563D4
S113000015C037C036C035C034C033C032C032C06A
S113001030C02FC02EC02DC02CC02BC02AC029C078
S113002028C027C026C025C024C0340111241FBE07
S1130030CFEDCDBF10E0A0E6B0E0E0E9F2E002C011
S113004005900D92A838B107D9F720E0A8E8B0E0F0
S113005001C01D92A239B207E1F710E0C6E1D0E079
S113006003C02197FE010CD1C531D107D1F7C0D00F
S11300700DC1C6CF1F920F920FB60F9211242F936A
S11300803F934F935F936F938F939F93AF93BF93DC
S1130090EF93FF938CB180938800F8945F9912C01A
S11300A080E090E031E040E001965F9908C0232FA2
S11300B08F3F5FEF950709F4242F2111F5CF0196A7
S11300C009F486C0ACB1E8E8F0E0A183E081EF7008
S11300D0E83031F138F0E93009F44EC0EA3009F47F
S11300E056C075C0E43008F072C0A03180F08FEBC8
S11300F08A0F8A3110F4A7530AC08FE98A0F8A3114
S113010010F4A75504C0A053AA3008F0A0E0F0E012
S1130110E657FF4FB0E0AC59BF4F8C91808357C076
S1130120AF3F41F4EAE8F0E081E08483858386838D
S113013087834DC0A11107C0EAE8F0E0148215825C
S11301401682178244C0EAE8F0E080E090E041E0E3
S113015050E061E09A01082E02C0220F331F0A9476
S1130160E2F72A2311F4148201C0648301963196C4
S11301708430910579F72BC081E0A11101C080E0A2
S1130180EAE8F0E0848385838683878320C0AF3FD9
S113019041F4EAE8F0E081E0848385838683878301
S11301A016C0EAE8F0E080E090E041E050E06BEF58
S11301B09A01082E02C0220F331F0A94E2F72A2361
S11301C009F06083019631968430910589F778941B
S11301D0FF91EF91BF91AF919F918F916F915F913B
S11301E04F913F912F910F900FBE0F901F90189534
S11301F080E98AB986E083B981E889B978948FEF78
S113020087BB11BA80E690E064E670E0FC0141E04F
S113021050E0A1B39A01019002C0220F331F0A9447
S1130220E2F72A2B21BBE617F70799F72FEA209369
S11302308A004EE850E0EAE8F0E0DC01219128BBB6
S1130240238130E00D9002C0220F331F0A94E2F79D
S1130250209522BBC7EAD1E62197F1F700C0000040
S1130260E417F50741F3EACFEAE8F0E010821182DF
S11302701282138281E08483858386838783089531
S1130280EE0FFF1F0590F491E02D0994F894FFCF31
S113029002030405FB32D7773E7DFD33FF3FAFEF0A
S11302A0C9EBCD8DE9AE22E2CEC8A1A4E48F2F84A0
S10B02B06DCCEAEE4A2C6EC786
S9030000FC
