S0100000736576656E5365672E73726563D4
S113000014C024C023C022C021C020C01FC01EC0F1
S11300101DC01CC01BC01AC019C018C017C016C010
S113002015C014C013C012C011C011241FBECFEDDF
S1130030CDBF10E0A0E6B0E0E0E7F1E002C005903B
S11300400D92A436B107D9F702D090C0D9CFCF937F
S1130050DF93CDB7DD27C850CDBF81E08D838E837C
S11300608F8388878FEF87BB81BB8FEA89838FEE6D
S11300708A8389EC8B838BEE8C83AE014B5F5F4F5D
S1130080FA0180E090E0A1E0B0E061E09D01082E7B
S113009002C0220F331F0A94E2F7257011F4108274
S11300A001C06083019631968430910579F7D12C93
S11300B00F2EF0E6EF2EF0E0FF2EF02D9E012B5FC9
S11300C03F4FB42EC52E08EE13E0FE013196A70172
S11300D06B2D7C2D819188BBDB018D91BD0190E05E
S11300E0DA010D9002C0880F991F0A94E2F7AD015E
S11300F0809582BB87EA91E60197F1F700C0000082
S1130100E217F30739F7D3948D2D90E0B80107D0A7
S1130110892BD9F61D821E821F821886D6CF97FBA3
S1130120072E16F4009406D077FD08D00BD007FCF8
S113013005D03EF4909581959F4F089570956195F3
S11301407F4F0895AA1BBB1B51E107C0AA1FBB1F09
S1130150A617B70710F0A61BB70B881F991F5A954F
S1130160A9F780959095BC01CD010895F894FFCF2F
S10701700203040579
S9030000FC
