:1000000014C024C023C022C021C020C01FC01EC0F5
:100010001DC01CC01BC01AC019C018C017C016C014
:1000200015C014C013C012C011C011241FBECFEDE3
:10003000CDBF10E0A0E6B0E0EAE3F1E002C0059039
:100040000D92A436B107D9F702D075C0D9CFCF939E
:10005000DF93CDB7DD27C850CDBF1D821E821F8222
:1000600018868FEF87BB81BB8FEA89838FEE8A83E7
:1000700089EC8B838BEE8C83D12C5E0185E0A80EFE
:10008000B11C0F2EF0E6EF2EF0E0FF2EF02D9501C3
:1000900008EE13E00F2EFBEFCF2EF02DDE011196B0
:1000A000B501A7018D9188BBFB018191BF0190E053
:1000B000FA01019002C0880F991F0A94E2F7AF017C
:1000C00082BB87EA91E60197F1F700C00000A21712
:1000D000B30741F7D3948D2D90E0B80105D0892B5B
:1000E000E9F6CA82CC82DACF97FB072E16F4009489
:1000F00006D077FD08D00BD007FC05D03EF49095D4
:1001000081959F4F0895709561957F4F0895AA1B23
:10011000BB1B51E107C0AA1FBB1FA617B70710F0F2
:10012000A61BB70B881F991F5A95A9F78095909524
:0A013000BC01CD010895F894FFCF43
:04013A0002030405B3
:00000001FF
