:100000000C9434000C943E000C943E000C943E0082
:100010000C943E000C943E000C943E000C943E0068
:100020000C943E000C943E000C943E000C943E0058
:100030000C943E000C943E000C943E000C943E0048
:100040000C943E000C943E000C943E000C943E0038
:100050000C943E000C943E000C943E000C943E0028
:100060000C943E000C943E0011241FBECFEFD8E04C
:10007000DEBFCDBF0E945B000C94AE000C9400006C
:1000800088E08093C10086E08093C20081E880937D
:10009000C4000895E0ECF0E0908195FFFDCF8093DF
:1000A000C6000895CF93C62F0E944A008C2F0E944D
:1000B0004A00CF910895CF93DF9300D000D0CDB701
:1000C000DEB780E389838A838B838C830E94400020
:1000D00032C060E380E00E94520080E389837E01A9
:1000E00022E0E20EF11C10E00AC060E3812F0E94C2
:1000F000520080E3F70181937F01133031F01F5FDD
:10010000F7018081893389F301C010E0E1E0F0E07C
:10011000EC0FFD1FE10FF11D60816F5F6083812F88
:100120000E945200FFEF28E08DE3F1502040804014
:10013000E1F700C0000019811F5F1983612F80E083
:100140000E9452009FEFE8E0FDE39150E040F04054
:10015000E1F700C00000193371F7BBCFF894FFCF6F
:00000001FF
