S011000061746D6567613332382E7372656307
S11300000C9434000C943E000C943E000C943E007E
S11300100C943E000C943E000C943E000C943E0064
S11300200C943E000C943E000C943E000C943E0054
S11300300C943E000C943E000C943E000C943E0044
S11300400C943E000C943E000C943E000C943E0034
S11300500C943E000C943E000C943E000C943E0024
S11300600C943E000C943E0011241FBECFEFD8E048
S1130070DEBFCDBF0E9448000C94A3000C94000086
S1130080E0ECF0E0908195FFFDCF8093C6000895E9
S11300902FE786E998E9215080409040E1F700C0BD
S11300A000002FE786E998E9215080409040E1F76D
S11300B000C000002FEF88E09DE321508040904075
S11300C0E1F700C0000080E00E9440002FE78AE1D1
S11300D096E0215080409040E1F700C0000081E0AC
S11300E00E944000C1E0D0E000E010E0E12CF12CDF
S11300F021962FEF88E09DE3215080409040E1F766
S113010000C00000802F0E9440002FE78AE196E0A3
S1130110215080409040E1F700C000008C2F0E94E5
S11301204000C930D10521F70F5F1F4F03701078CD
S1130130112334F4015011090C6F1F6F0F5F1F4F0F
S10D0140CE2DDF2DD5CFF894FFCFAC
S9030000FC
